:100000000C9463000C948B000C948B000C9484066D
:100010000C9484060C9484060C948B000C948B0036
:100020000C948B000C948B000C948B000C948B0024
:100030000C948B000C945F060C948B000C948B003A
:100040000C9415060C948B000C94E3050C94BD05E0
:100050000C948B000C948B000C948B000C948B00F4
:100060000C948B000C948B000000000024002700EF
:100070002A0000000008000201000003040700003D
:1000800000000000000000000000230026002900FE
:1000900000000000250028002B00040404040404D0
:1000A0000404020202020202030303030303010227
:1000B00004081020408001020408102001020408F6
:1000C0001020FC06000B11241FBECFEFD8E0DEBFCE
:1000D000CDBF11E0A0E0B1E0E2EFF6E102C0059093
:1000E0000D92A439B107D9F723E0A4E9B1E001C02A
:1000F0001D92AC32B207E1F710E0C2E6D0E004C0D6
:100100002197FE010E94660BC136D107C9F70E94F4
:1001100028080C946C0B0C94000096E0899FD00189
:100120001124AA57BD4F90967C936E935F9791E0F0
:1001300091969C939197E091F302F091F402909143
:10014000F202992339F0309751F0811108C0809163
:10015000A2020994309719F05C968C91FACF089519
:10016000CF92DF92EF92FF920F931F9396E0899FB9
:10017000F0011124EA57FD4F11A2278D30A1213043
:10018000310551F178F02230310509F451C02330A6
:10019000310509F452C01F910F91FF90EF90DF904D
:1001A000CF9008956623B9F361E070E00E948D005E
:1001B0002FB7F8948091E5019091E601A091E701B5
:1001C000B091E8012FBF8093DE029093DF02A093ED
:1001D000E002B093E102DFCF9FB7F894C090E50151
:1001E000D090E601E090E701F090E8019FBF009118
:1001F000DE021091DF022091E0023091E102C01A8C
:10020000D10AE20AF30A0091F0021091F10230E003
:1002100020E00C151D052E053F0550F462E070E04E
:100220001F910F91FF90EF90DF90CF900C948D0075
:100230006111B1CF63E070E0F3CF70E060E0F0CF28
:10024000AF92BF92CF92DF92EF92FF920F931F93E4
:10025000CF93DF936C017B018B01040F151FEB0122
:100260005E01AE18BF08C017D10759F06991D601D9
:10027000ED91FC910190F081E02DC6010995892B4B
:1002800079F7C501DF91CF911F910F91FF90EF900A
:10029000DF90CF90BF90AF900895FC01538D448DB7
:1002A000252F30E0842F90E0821B930B541710F021
:1002B000CF96089501970895FC01918D828D98172E
:1002C00061F0A28DAE0FBF2FB11D5D968C91928D06
:1002D0009F5F9F73928F90E008958FEF9FEF089537
:1002E000FC01918D828D981731F0828DE80FF11D00
:1002F000858D90E008958FEF9FEF0895FC01918D1B
:10030000228D892F90E0805C9F4F821B91098F7313
:100310009927089589EE91E00E947E0121E0892BC2
:1003200009F420E0822F089580E090E0892B29F0E5
:100330000E948A0181110C9400000895FC01A48D93
:10034000A80FB92FB11DA35ABF4F2C91848D90E0F7
:1003500001968F739927848FA689B7892C93A089DA
:10036000B1898C91837080648C93938D848D981364
:1003700006C00288F389E02D80818F7D80830895F7
:10038000EF92FF920F931F93CF93DF93EC0181E0E5
:10039000888F9B8D8C8D98131AC0E889F98980818C
:1003A00085FF15C09FB7F894EE89FF896083E889BF
:1003B000F98980818370806480839FBF81E090E0B1
:1003C000DF91CF911F910F91FF90EF900895F62E3E
:1003D0000B8D10E00F5F1F4F0F731127E02E8C8DD8
:1003E0008E110CC00FB607FCFACFE889F98980811D
:1003F00085FFF5CFCE010E949E01F1CFEB8DEC0F72
:10040000FD2FF11DE35AFF4FF0829FB7F8940B8F39
:10041000EA89FB8980818062CFCFCF93DF93EC01A3
:10042000888D8823B9F0AA89BB89E889F9898C91DC
:1004300085FD03C0808186FD0DC00FB607FCF7CF98
:100440008C9185FFF2CF808185FFEDCFCE010E9498
:100450009E01E9CFDF91CF910895833081F028F498
:10046000813099F08230A9F008958730A9F0883062
:10047000C9F08430B1F4809180008F7D03C08091F9
:1004800080008F7780938000089584B58F7784BD36
:10049000089584B58F7DFBCF8091B0008F778093D6
:1004A000B00008958091B0008F7DF9CFCF93DF9396
:1004B000282F30E0F901EE58FF4F8491F901E25501
:1004C000FF4FD491F901E656FF4FC491CC23A1F020
:1004D00081110E942D02EC2FF0E0EE0FFF1FEA5772
:1004E000FF4FA591B491EC91ED2381E090E009F4E8
:1004F00080E0DF91CF91089580E090E0FACF862FE1
:100500000C9456021F93CF93DF93282F30E0F9010C
:10051000EE58FF4F8491F901E255FF4FD491F90154
:10052000E656FF4FC491CC23A9F0162F81110E94EB
:100530002D02EC2FF0E0EE0FFF1FE057FF4FA591CB
:10054000B4918FB7F894EC91111108C0D095DE23C7
:10055000DC938FBFDF91CF911F910895DE2BF8CFF1
:10056000862F642F0C948202CF93DF9390E0FC01DE
:10057000E255FF4F249186569F4FFC0184918823BA
:10058000C9F090E0880F991FFC01E859FF4FA59131
:10059000B491FC01E057FF4FC591D49161110DC09A
:1005A0009FB7F8948C91209582238C93888128237F
:1005B00028839FBFDF91CF910895623051F49FB798
:1005C000F8943C91822F809583238C93E8812E2B85
:1005D000EFCF8FB7F894EC912E2B2C938FBFEACFEF
:1005E000862F642F0C94B4028E50806480937C001C
:1005F00080917A00806480937A0080917A0086FDF1
:10060000FCCF809178009091790008953FB7F894DD
:100610008091D9019091DA01A091DB01B091DC01C8
:1006200026B5A89B05C02F3F19F00196A11DB11D4D
:100630003FBFBA2FA92F982F8827BC01CD01620F89
:10064000711D811D911D42E0660F771F881F991F44
:100650004A95D1F708958F929F92AF92BF92CF9211
:10066000DF92EF92FF924B015C010E9406036B0147
:100670007C010E9406036C197D098E099F09683E62
:10068000734081059105A8F321E0821A9108A10821
:10069000B10888EEC80E83E0D81EE11CF11C81145D
:1006A0009104A104B10429F7FF90EF90DF90CF905F
:1006B000BF90AF909F908F90089508952091D6019C
:1006C0003091D7012817390771F49091D5018091A5
:1006D000D401981741F0E091D501F0E0EC56FE4FBF
:1006E000808190E008958FEF9FEF08950895EF9235
:1006F000FF920F931F93CF93DF93DC015C96ED90F5
:10070000FC905D97E114F10479F481E090E0139698
:100710009C938E93129790E080E0DF91CF911F9190
:100720000F91FF90EF9008955196ED91FC915297A3
:1007300050968C915097982F90950FB75E962C916C
:100740005E97122F127021FD6095F894208111237D
:1007500019F1282B2083E7012197F1F728E0462F94
:1007600050E0308160FF1AC0382B3083E7012197B9
:10077000F1F7BA0175956795215089F7112381F03A
:100780008081892380830FBF5C968D919C91019716
:10079000F1F781E090E0C1CF2923DCCF3923E5CF09
:1007A0009081892BEFCF2091D6013091D701281766
:1007B000390771F48091D4012091D50190E0805CDB
:1007C0009F4F821B910960E470E00E94300B0895F6
:1007D00090E080E008952091D6013091D70128174C
:1007E0003907B9F49091D5018091D401981789F017
:1007F000E091D501F0E0EC56FE4F80812091D501CB
:1008000030E02F5F3F4F2F7333272093D50190E0C7
:1008100008958FEF9FEF089590E080E00895CF93C3
:10082000DF93EC0160E08E810E94820261E08E81A4
:100830000E94820260E08E810E9482028BE891E039
:100840000197F1F7DF91CF910895CF92DF92EF9268
:10085000FF920F931F93CF93DF936C017C0187E08E
:10086000E80EF11CD0E0C0E0062F10E0B8010C2E1D
:1008700002C0759567950A94E2F76170F70181915E
:100880007F010E9482022196C430D10579F7C6010A
:10089000DF91CF911F910F91FF90EF90DF90CF905C
:1008A0000C940F04CF92DF92EF92FF920F931F935D
:1008B000CF93DF93EC01F62E642F8C810E9482028D
:1008C0008D818F3F19F060E00E9482020F2D10E0B1
:1008D0008F8584FF25C06E0187E0C80ED11CF12CE6
:1008E000E12CB8010E2C02C0759567950A94E2F7C9
:1008F0006170F60181916F010E948202FFEFEF1A91
:10090000FF0A88E0E816F10461F7CE01DF91CF918C
:100910001F910F91FF90EF90DF90CF900C940F04F8
:10092000B80184E0759567958A95E1F7CE010E943C
:1009300025046F2DCE01DF91CF911F910F91FF9074
:10094000EF90DF90CF900C94250440E0682F84E175
:1009500093E00C945204CF93DF93823029F490916A
:100960002303986090932303809327031092280316
:1009700080E48093290380E180932A0380E58093BB
:100980002B0361E0809118030E94B4028091190347
:100990008F3F19F061E00E94B40261E080911A0378
:1009A0000E94B402C4E1D3E09E01245133408091FF
:1009B000230384FD0BC084E090E0219628173907BB
:1009C00044F461E08E810E94B402EECF88E090E0B2
:1009D000F4CF8BE39DE00197F1F760E0809118037D
:1009E0000E94820260E080911A030E94820280913C
:1009F00019038F3F19F060E00E9482028091230367
:100A000084FD39C063E084E193E00E942504CBE4D7
:100A1000D6E4CE010197F1F763E084E193E00E9410
:100A200025042197F1F763E084E193E00E94250417
:100A300083E592E00197F1F762E084E193E00E94A0
:100A400025048091230380620E94A50484E08093A2
:100A500024038CE00E94A50481E00E94A5048BE39E
:100A60009FE10197F1F782E08093250386E0DF9113
:100A7000CF910C94A50480620E94A5048BE496E4B7
:100A80000197F1F78091230380620E94A50483E51A
:100A900092E00197F1F78091230380620E94A50400
:100AA000D0CF90912703691710F06FEF690FE62FF1
:100AB000F0E0EC5EFC4F9489890F80680C94A504EB
:100AC00041E00E94520481E090E00895CF92DF92CD
:100AD000EF92FF920F931F93CF93DF93CDB7DEB7C3
:100AE000A1970FB6F894DEBF0FBECDBF9C0150E0BA
:100AF00040E019A28E010F5D1F4F8AE0C82ED12C55
:100B0000E12CF12CCA01B901A70196010E94440B06
:100B1000605DF80162938F01211531054105510592
:100B200089F790E080E0309761F001900020E9F7CC
:100B30003197AF01401B510BB80184E193E00E9453
:100B40002001A1960FB6F894DEBF0FBECDBFDF9196
:100B5000CF911F910F91FF90EF90DF90CF9008956C
:100B6000FC0101900020E9F73197AF01481B590BB8
:100B7000BC0184E193E00C9420011F920F920FB608
:100B80000F9211242F933F934F935F936F937F9313
:100B90008F939F93AF93BF93EF93FF9389EE91E071
:100BA0000E949E01FF91EF91BF91AF919F918F9114
:100BB0007F916F915F914F913F912F910F900FBE59
:100BC0000F901F9018951F920F920FB60F9211243D
:100BD0002F938F939F93EF93FF93E091F901F091FF
:100BE000FA018081E091FF01F091000282FD1BC0BB
:100BF0009081809102028F5F8F7320910302821790
:100C000041F0E0910202F0E0E751FE4F958F8093B2
:100C10000202FF91EF919F918F912F910F900FBE44
:100C20000F901F9018958081F4CF1F920F920FB6EE
:100C30000F9211242F933F938F939F93AF93BF9362
:100C40008091E5019091E601A091E701B091E80162
:100C50003091D80123E0230F2D3758F50196A11DBF
:100C6000B11D2093D8018093E5019093E601A093F4
:100C7000E701B093E8018091D9019091DA01A09148
:100C8000DB01B091DC010196A11DB11D8093D9015A
:100C90009093DA01A093DB01B093DC01BF91AF9197
:100CA0009F918F913F912F910F900FBE0F901F90AA
:100CB000189526E8230F0296A11DB11DD2CF1F92D1
:100CC0000F920FB60F9211242F933F934F935F9380
:100CD0006F937F938F939F93AF93BF93EF93FF9304
:100CE000F0E0E0E00995FF91EF91BF91AF919F9106
:100CF0008F917F916F915F914F913F912F910F90C5
:100D00000FBE0F901F9018951F920F920FB60F9263
:100D100011242F933F934F935F936F937F938F9300
:100D20009F93AF93BF93EF93FF93E091D601F09120
:100D3000D701309749F0A685B7858585968D91FFB7
:100D400014C09C918923A1F4FF91EF91BF91AF91C1
:100D50009F918F917F916F915F914F913F912F91D3
:100D60000F900FBE0F901F9018959C91892361F7EB
:100D7000A389B4899C918589809589238C938689E0
:100D800097890197F1F7608D718DA685B785558597
:100D900038E020E0CB010197F1F7822F90E09595A4
:100DA0008795282F4C91452309F02068315091F701
:100DB000868D81FD20958091D40190E001968F73FE
:100DC00099273091D501381799F0A091D401B0E05E
:100DD000AC56BE4F2C938093D401828D938D019796
:100DE000F1F7A389B4898C919589892B8C93ACCF29
:100DF000868D8160868FF1CFCF92DF92EF92FF9246
:100E00001092EC011092EB0198EEC92E93E0D92ECE
:100E1000E12CF12CC092ED01D092EE01E092EF01B5
:100E2000F092F00187E191E09093EA018093E9016B
:100E300085EC90E09093F6018093F50184EC90E0CE
:100E40009093F8018093F70180EC90E09093FA0181
:100E50008093F90181EC90E09093FC018093FB0179
:100E600082EC90E09093FE018093FD0186EC90E08F
:100E7000909300028093FF011092020210920302ED
:100E8000109204021092050210921703109216039A
:100E900085E491E0909315038093140387E0809399
:100EA00018038FEF8093190386E080931A0385E07F
:100EB00080931B0384E080931C0383E080931D03D5
:100EC00082E080931E0310921F0310922003109261
:100ED0002103109222031092230381E00E94AB04AD
:100EE0001092F8021092F702C092F902D092FA0220
:100EF000E092FB02F092FC0283E391E09093F60211
:100F00008093F50210920C0310920B0310920E03C3
:100F100010920D031092100310920F0310921203FF
:100F200010921103609113036E7F6D7F6093130322
:100F30006695617081E0682789E00E94820261E025
:100F400089E00E94B402E7EBF0E0E491E09305034E
:100F5000E3EAF0E0E491F0E0EE0FFF1FE057FF4F0F
:100F600085919491909307038093060360E088E055
:100F70000E94B4028091130381FD04C061E088E007
:100F80000E94820288E080930103E6EBF0E0E491A6
:100F9000E0930203E2EAF0E0E491F0E0EE0FFF1FDD
:100FA000EA57FF4F85919491909304038093030334
:100FB0001092880210928C0210928B0210928D0275
:100FC00089E291E09093870280938602E2EAF2E060
:100FD0001082148213821582369682E0EE3DF80765
:100FE000B9F783E091E09093E9028093E80280E012
:100FF00091E09093EB028093EA0284E08093EC020C
:1010000083E08093ED0287E091E09093E702809384
:10101000E6028AE090E09093EF028093EE0284EF84
:1010200091E09093F1028093F0021092F4021092FA
:10103000F3021092E2021092E3021092E402109284
:10104000E5021092F202FF90EF90DF90CF900895AA
:10105000789484B5826084BD84B5816084BD85B593
:10106000826085BD85B5816085BD80916E0081609F
:1010700080936E0010928100809181008260809345
:101080008100809181008160809381008091800047
:101090008160809380008091B10084608093B10072
:1010A0008091B00081608093B00080917A0084606C
:1010B00080937A0080917A00826080937A00809198
:1010C0007A00816080937A0080917A0080688093B2
:1010D0007A001092C100E091F901F091FA0182E0EA
:1010E0008083E091F501F091F6011082E091F70123
:1010F000F091F8018FEC808310920102E091FD01E4
:10110000F091FE0186E08083E091FB01F091FC010B
:10111000808180618083E091FB01F091FC018081FE
:1011200088608083E091FB01F091FC018081806800
:101130008083E091FB01F091FC0180818F7D8083B1
:1011400061E08BE00E94B40260E08BE00E948202CA
:1011500082E00E94AB0460E080E00E9451058DE4D3
:1011600091E00E94B00568EE73E080E090E00E949C
:101170002B0381E00E94A5048BE39FE10197F1F727
:10118000412C512C32014394C4E6D0E00AE010E037
:1011900021E02093F2028FB7F8944091E50150913D
:1011A000E6016091E7017091E8018FBF8091E20252
:1011B0009091E302A091E402B091E502481B590B23
:1011C0006A0B7B0B8091EE029091EF02B0E0A0E001
:1011D00084179507A607B70708F0FDC1F12C809189
:1011E000EC02F81660F4E091E802F091E902EF0DEC
:1011F000F11D62E080810E94B402F394F0CF312CA3
:101200008091ED02381608F064C0E32CF12CE091D7
:10121000EA02F091EB02EE0DFF1D61E080810E9479
:10122000B402E091EA02F091EB02EE0DFF1D60E0E6
:1012300080810E948202D301C201032C04C0880F66
:10124000991FAA1FBB1F0A94D2F75C016C01C094BE
:10125000D094212C8091EC02281620F5822C912C20
:10126000E091E802F091E902E80DF91D80810E9409
:101270005602F4013496892B61F4EE0FFF1FEA57F2
:10128000FD4F808191818A299B29918380832394BA
:10129000E1CFEE0FFF1FEA57FD4F808191818C2136
:1012A0009D21F3CFE091EA02F091EB02EE0DFF1DDC
:1012B00061E080810E9482028091EA029091EB02BB
:1012C000E80EF91E60E0F70180810E94B4023394B9
:1012D00097CF46E8C42E42E0D42E7601F701878DE1
:1012E00090A1892B31F4148E2FEF3FEF368F258F8D
:1012F00011A236E0E30EF11C52ECE51652E0F506C1
:1013000069F7B12C8091EC02B81608F053C0A12CFB
:101310008B2C912C880C991CC40182579D4F4C0139
:101320002091ED02A21608F043C0F40160817181A2
:101330000A2C02C0769567950A94E2F7B29E900156
:1013400011242A0D311DE6E8F2E080E0458D568D2E
:101350002417350709F452C18F5F36968A30B1F7EA
:1013600060FF24C0E6E8F2E090E080E0448D4111A7
:1013700018C0E091E602F091E702E20FF31F40810E
:1013800056E0589FF001599FF00D1124EA57FD4F88
:10139000448F368F258F10A2178E61E00E94B00017
:1013A00005C0019636968A30910501F7A394B8CF0F
:1013B000B394A8CF80E0F60191A19111892FF6E0B6
:1013C000CF0ED11CEC14FD04B1F79FB7F8944091F7
:1013D000E5015091E6016091E7017091E8019FBF3E
:1013E0004093E2025093E3026093E4027093E502BB
:1013F000882309F4F0C08091A702882309F4EBC088
:101400008091A5029091A602019709F0E4C0F090A6
:10141000A202F110E3C08EE00E94F4027C019093DE
:10142000E4018093E3018FE00E94F402EE0CFF1CC4
:10143000F092E201E092E101853F914098F08091C5
:10144000DF019091E00101969093E0018093DF012C
:1014500060E080E00E9451056AEF70E080E090E07B
:101460000E942B038091DF019091E0019093DE01B7
:101470008093DD0161E080E00E94510589E591E003
:101480000E94B0058091DD019091DE01BE010E94B5
:101490001C0BCB010E9466058091DD019091DE015D
:1014A000BE010E941C0BB8010E941C0BCB010E94C4
:1014B00066058091DD019091DE01BE010E941C0B4A
:1014C000B8010E941C0B0E9466058FE591E00E9406
:1014D000B0058091E1019091E201BE010E941C0BD8
:1014E000CB010E9466058091E1019091E201BE016D
:1014F0000E941C0BB8010E941C0BCB010E946605C8
:1015000085E691E00E94B0058091E1019091E201B1
:10151000BE010E941C0BB8010E941C0B0E946605B4
:101520008091E1019091E201833C914090F061E073
:101530008BE00E94820260E080E00E9451056AEF29
:1015400070E080E090E00E942B0387E691E00E942B
:10155000B0058091E1019091E2018F55914089356C
:10156000910590F460E08BE00E94820260E080E0F0
:101570000E9451056AEF70E080E090E00E942B032A
:1015800087E791E00E94B0058091E1019091E2012E
:1015900002978235914090F461E08BE00E948202D4
:1015A00060E080E00E9451056AEF70E080E090E02A
:1015B0000E942B0387E891E00E94B00580E090E054
:1015C000892B09F4E5CD0E948A01882309F4E0CD36
:1015D0000E940000DDCD1092F2021DCF6F2D89EE2A
:1015E00091E00E94C00160E08FE00E94510541E05F
:1015F0006F2D84E193E00E9452040DCF6170CECE36
:1016000083E391E09093F6028093F5028091D601F6
:101610009091D701855F924071F4E0910803F091B9
:101620000903908180910A03809589238083109219
:10163000D7011092D6010895AA1BBB1B51E107C028
:10164000AA1FBB1FA617B70710F0A61BB70B881F52
:10165000991F5A95A9F780959095BC01CD010895E1
:1016600097FB072E16F4009407D077FD09D00E944F
:101670001C0B07FC05D03EF4909581959F4F089573
:10168000709561957F4F0895A1E21A2EAA1BBB1B8E
:10169000FD010DC0AA1FBB1FEE1FFF1FA217B3073E
:1016A000E407F50720F0A21BB30BE40BF50B661F54
:1016B000771F881F991F1A9469F760957095809518
:1016C00090959B01AC01BD01CF010895EE0FFF1F66
:1016D0000590F491E02D099410E0C2E6D0E004C03A
:1016E000FE010E94660B2196C336D107C9F7F89414
:0216F000FFCF2A
:1016F20008090A10111213313233343536373839AA
:101702002A302300000000C00120014D010D027E9D
:10171200015C01700100000000F002B0027F0200D3
:10172200000000770320010C047603D303EB035E71
:101732000300000000600520010C045D03534D41CD
:10174200525420574154434800737465703A005410
:10175200656D703A002E00426F64792074656D7079
:101762002E48494748200074656D702E206E6F72B6
:101772006D616C2020200074656D702E206C6F7777
:041782002020200003
:00000001FF
